{
  "_format": "hh-sol-artifact-1",
  "contractName": "NFT",
  "sourceName": "contracts/NFT.sol",
  "abi": [
    {
      "inputs": [],
      "stateMutability": "nonpayable",
      "type": "constructor"
    },
    {
      "anonymous": false,
      "inputs": [
        {
          "indexed": true,
          "internalType": "address",
          "name": "owner",
          "type": "address"
        },
        {
          "indexed": true,
          "internalType": "address",
          "name": "approved",
          "type": "address"
        },
        {
          "indexed": true,
          "internalType": "uint256",
          "name": "tokenId",
          "type": "uint256"
        }
      ],
      "name": "Approval",
      "type": "event"
    },
    {
      "anonymous": false,
      "inputs": [
        {
          "indexed": true,
          "internalType": "address",
          "name": "owner",
          "type": "address"
        },
        {
          "indexed": true,
          "internalType": "address",
          "name": "operator",
          "type": "address"
        },
        {
          "indexed": false,
          "internalType": "bool",
          "name": "approved",
          "type": "bool"
        }
      ],
      "name": "ApprovalForAll",
      "type": "event"
    },
    {
      "anonymous": false,
      "inputs": [
        {
          "indexed": true,
          "internalType": "address",
          "name": "from",
          "type": "address"
        },
        {
          "indexed": true,
          "internalType": "address",
          "name": "to",
          "type": "address"
        },
        {
          "indexed": true,
          "internalType": "uint256",
          "name": "tokenId",
          "type": "uint256"
        }
      ],
      "name": "Transfer",
      "type": "event"
    },
    {
      "inputs": [
        {
          "internalType": "address",
          "name": "to",
          "type": "address"
        },
        {
          "internalType": "uint256",
          "name": "tokenId",
          "type": "uint256"
        }
      ],
      "name": "approve",
      "outputs": [],
      "stateMutability": "nonpayable",
      "type": "function"
    },
    {
      "inputs": [
        {
          "internalType": "address",
          "name": "owner",
          "type": "address"
        }
      ],
      "name": "balanceOf",
      "outputs": [
        {
          "internalType": "uint256",
          "name": "",
          "type": "uint256"
        }
      ],
      "stateMutability": "view",
      "type": "function"
    },
    {
      "inputs": [
        {
          "internalType": "uint256",
          "name": "tokenId",
          "type": "uint256"
        }
      ],
      "name": "getApproved",
      "outputs": [
        {
          "internalType": "address",
          "name": "",
          "type": "address"
        }
      ],
      "stateMutability": "view",
      "type": "function"
    },
    {
      "inputs": [
        {
          "internalType": "address",
          "name": "owner",
          "type": "address"
        },
        {
          "internalType": "address",
          "name": "operator",
          "type": "address"
        }
      ],
      "name": "isApprovedForAll",
      "outputs": [
        {
          "internalType": "bool",
          "name": "",
          "type": "bool"
        }
      ],
      "stateMutability": "view",
      "type": "function"
    },
    {
      "inputs": [
        {
          "internalType": "address",
          "name": "recipient",
          "type": "address"
        },
        {
          "internalType": "string",
          "name": "tokenURI",
          "type": "string"
        }
      ],
      "name": "mintNFT",
      "outputs": [
        {
          "internalType": "uint256",
          "name": "",
          "type": "uint256"
        }
      ],
      "stateMutability": "nonpayable",
      "type": "function"
    },
    {
      "inputs": [],
      "name": "name",
      "outputs": [
        {
          "internalType": "string",
          "name": "",
          "type": "string"
        }
      ],
      "stateMutability": "view",
      "type": "function"
    },
    {
      "inputs": [
        {
          "internalType": "uint256",
          "name": "tokenId",
          "type": "uint256"
        }
      ],
      "name": "ownerOf",
      "outputs": [
        {
          "internalType": "address",
          "name": "",
          "type": "address"
        }
      ],
      "stateMutability": "view",
      "type": "function"
    },
    {
      "inputs": [
        {
          "internalType": "address",
          "name": "from",
          "type": "address"
        },
        {
          "internalType": "address",
          "name": "to",
          "type": "address"
        },
        {
          "internalType": "uint256",
          "name": "tokenId",
          "type": "uint256"
        }
      ],
      "name": "safeTransferFrom",
      "outputs": [],
      "stateMutability": "nonpayable",
      "type": "function"
    },
    {
      "inputs": [
        {
          "internalType": "address",
          "name": "from",
          "type": "address"
        },
        {
          "internalType": "address",
          "name": "to",
          "type": "address"
        },
        {
          "internalType": "uint256",
          "name": "tokenId",
          "type": "uint256"
        },
        {
          "internalType": "bytes",
          "name": "data",
          "type": "bytes"
        }
      ],
      "name": "safeTransferFrom",
      "outputs": [],
      "stateMutability": "nonpayable",
      "type": "function"
    },
    {
      "inputs": [
        {
          "internalType": "address",
          "name": "operator",
          "type": "address"
        },
        {
          "internalType": "bool",
          "name": "approved",
          "type": "bool"
        }
      ],
      "name": "setApprovalForAll",
      "outputs": [],
      "stateMutability": "nonpayable",
      "type": "function"
    },
    {
      "inputs": [
        {
          "internalType": "bytes4",
          "name": "interfaceId",
          "type": "bytes4"
        }
      ],
      "name": "supportsInterface",
      "outputs": [
        {
          "internalType": "bool",
          "name": "",
          "type": "bool"
        }
      ],
      "stateMutability": "view",
      "type": "function"
    },
    {
      "inputs": [],
      "name": "symbol",
      "outputs": [
        {
          "internalType": "string",
          "name": "",
          "type": "string"
        }
      ],
      "stateMutability": "view",
      "type": "function"
    },
    {
      "inputs": [
        {
          "internalType": "uint256",
          "name": "tokenId",
          "type": "uint256"
        }
      ],
      "name": "tokenURI",
      "outputs": [
        {
          "internalType": "string",
          "name": "",
          "type": "string"
        }
      ],
      "stateMutability": "view",
      "type": "function"
    },
    {
      "inputs": [
        {
          "internalType": "address",
          "name": "from",
          "type": "address"
        },
        {
          "internalType": "address",
          "name": "to",
          "type": "address"
        },
        {
          "internalType": "uint256",
          "name": "tokenId",
          "type": "uint256"
        }
      ],
      "name": "transferFrom",
      "outputs": [],
      "stateMutability": "nonpayable",
      "type": "function"
    }
  ],
  "bytecode": "0x60806040523480156200001157600080fd5b506040518060400160405280601a81526020017f4578616d706c65206e6f6e2d66756e6769626c6520746f6b656e0000000000008152506040518060400160405280600481526020017f654e465400000000000000000000000000000000000000000000000000000000815250816000908051906020019062000096929190620000b8565b508060019080519060200190620000af929190620000b8565b505050620001cd565b828054620000c69062000197565b90600052602060002090601f016020900481019282620000ea576000855562000136565b82601f106200010557805160ff191683800117855562000136565b8280016001018555821562000136579182015b828111156200013557825182559160200191906001019062000118565b5b50905062000145919062000149565b5090565b5b80821115620001645760008160009055506001016200014a565b5090565b7f4e487b7100000000000000000000000000000000000000000000000000000000600052602260045260246000fd5b60006002820490506001821680620001b057607f821691505b60208210811415620001c757620001c662000168565b5b50919050565b6128c580620001dd6000396000f3fe608060405234801561001057600080fd5b50600436106100ea5760003560e01c806370a082311161008c578063b88d4fde11610066578063b88d4fde1461025b578063c87b56dd14610277578063e985e9c5146102a7578063eacabe14146102d7576100ea565b806370a08231146101f157806395d89b4114610221578063a22cb4651461023f576100ea565b8063095ea7b3116100c8578063095ea7b31461016d57806323b872dd1461018957806342842e0e146101a55780636352211e146101c1576100ea565b806301ffc9a7146100ef57806306fdde031461011f578063081812fc1461013d575b600080fd5b61010960048036038101906101049190611a28565b610307565b6040516101169190611a70565b60405180910390f35b6101276103e9565b6040516101349190611b24565b60405180910390f35b61015760048036038101906101529190611b7c565b61047b565b6040516101649190611bea565b60405180910390f35b61018760048036038101906101829190611c31565b6104c1565b005b6101a3600480360381019061019e9190611c71565b6105d9565b005b6101bf60048036038101906101ba9190611c71565b610639565b005b6101db60048036038101906101d69190611b7c565b610659565b6040516101e89190611bea565b60405180910390f35b61020b60048036038101906102069190611cc4565b6106e0565b6040516102189190611d00565b60405180910390f35b610229610798565b6040516102369190611b24565b60405180910390f35b61025960048036038101906102549190611d47565b61082a565b005b61027560048036038101906102709190611ebc565b610840565b005b610291600480360381019061028c9190611b7c565b6108a2565b60405161029e9190611b24565b60405180910390f35b6102c160048036038101906102bc9190611f3f565b6109b5565b6040516102ce9190611a70565b60405180910390f35b6102f160048036038101906102ec9190612020565b610a49565b6040516102fe9190611d00565b60405180910390f35b60007f80ac58cd000000000000000000000000000000000000000000000000000000007bffffffffffffffffffffffffffffffffffffffffffffffffffffffff1916827bffffffffffffffffffffffffffffffffffffffffffffffffffffffff191614806103d257507f5b5e139f000000000000000000000000000000000000000000000000000000007bffffffffffffffffffffffffffffffffffffffffffffffffffffffff1916827bffffffffffffffffffffffffffffffffffffffffffffffffffffffff1916145b806103e257506103e182610a81565b5b9050919050565b6060600080546103f8906120ab565b80601f0160208091040260200160405190810160405280929190818152602001828054610424906120ab565b80156104715780601f1061044657610100808354040283529160200191610471565b820191906000526020600020905b81548152906001019060200180831161045457829003601f168201915b5050505050905090565b600061048682610aeb565b6004600083815260200190815260200160002060009054906101000a900473ffffffffffffffffffffffffffffffffffffffff169050919050565b60006104cc82610659565b90508073ffffffffffffffffffffffffffffffffffffffff168373ffffffffffffffffffffffffffffffffffffffff16141561053d576040517f08c379a00000000000000000000000000000000000000000000000000000000081526004016105349061214f565b60405180910390fd5b8073ffffffffffffffffffffffffffffffffffffffff1661055c610b36565b73ffffffffffffffffffffffffffffffffffffffff16148061058b575061058a81610585610b36565b6109b5565b5b6105ca576040517f08c379a00000000000000000000000000000000000000000000000000000000081526004016105c1906121e1565b60405180910390fd5b6105d48383610b3e565b505050565b6105ea6105e4610b36565b82610bf7565b610629576040517f08c379a000000000000000000000000000000000000000000000000000000000815260040161062090612273565b60405180910390fd5b610634838383610c8c565b505050565b61065483838360405180602001604052806000815250610840565b505050565b60008061066583610f86565b9050600073ffffffffffffffffffffffffffffffffffffffff168173ffffffffffffffffffffffffffffffffffffffff1614156106d7576040517f08c379a00000000000000000000000000000000000000000000000000000000081526004016106ce906122df565b60405180910390fd5b80915050919050565b60008073ffffffffffffffffffffffffffffffffffffffff168273ffffffffffffffffffffffffffffffffffffffff161415610751576040517f08c379a000000000000000000000000000000000000000000000000000000000815260040161074890612371565b60405180910390fd5b600360008373ffffffffffffffffffffffffffffffffffffffff1673ffffffffffffffffffffffffffffffffffffffff168152602001908152602001600020549050919050565b6060600180546107a7906120ab565b80601f01602080910402602001604051908101604052809291908181526020018280546107d3906120ab565b80156108205780601f106107f557610100808354040283529160200191610820565b820191906000526020600020905b81548152906001019060200180831161080357829003601f168201915b5050505050905090565b61083c610835610b36565b8383610fc3565b5050565b61085161084b610b36565b83610bf7565b610890576040517f08c379a000000000000000000000000000000000000000000000000000000000815260040161088790612273565b60405180910390fd5b61089c84848484611130565b50505050565b60606108ad82610aeb565b60006006600084815260200190815260200160002080546108cd906120ab565b80601f01602080910402602001604051908101604052809291908181526020018280546108f9906120ab565b80156109465780601f1061091b57610100808354040283529160200191610946565b820191906000526020600020905b81548152906001019060200180831161092957829003601f168201915b50505050509050600061095761118c565b905060008151141561096d5781925050506109b0565b6000825111156109a257808260405160200161098a9291906123cd565b604051602081830303815290604052925050506109b0565b6109ab846111c9565b925050505b919050565b6000600560008473ffffffffffffffffffffffffffffffffffffffff1673ffffffffffffffffffffffffffffffffffffffff16815260200190815260200160002060008373ffffffffffffffffffffffffffffffffffffffff1673ffffffffffffffffffffffffffffffffffffffff16815260200190815260200160002060009054906101000a900460ff16905092915050565b6000610a556007611231565b6000610a616007611247565b9050610a6d8482611255565b610a778184611473565b8091505092915050565b60007f01ffc9a7000000000000000000000000000000000000000000000000000000007bffffffffffffffffffffffffffffffffffffffffffffffffffffffff1916827bffffffffffffffffffffffffffffffffffffffffffffffffffffffff1916149050919050565b610af4816114e7565b610b33576040517f08c379a0000000000000000000000000000000000000000000000000000000008152600401610b2a906122df565b60405180910390fd5b50565b600033905090565b816004600083815260200190815260200160002060006101000a81548173ffffffffffffffffffffffffffffffffffffffff021916908373ffffffffffffffffffffffffffffffffffffffff160217905550808273ffffffffffffffffffffffffffffffffffffffff16610bb183610659565b73ffffffffffffffffffffffffffffffffffffffff167f8c5be1e5ebec7d5bd14f71427d1e84f3dd0314c0f7b2291e5b200ac8c7c3b92560405160405180910390a45050565b600080610c0383610659565b90508073ffffffffffffffffffffffffffffffffffffffff168473ffffffffffffffffffffffffffffffffffffffff161480610c455750610c4481856109b5565b5b80610c8357508373ffffffffffffffffffffffffffffffffffffffff16610c6b8461047b565b73ffffffffffffffffffffffffffffffffffffffff16145b91505092915050565b8273ffffffffffffffffffffffffffffffffffffffff16610cac82610659565b73ffffffffffffffffffffffffffffffffffffffff1614610d02576040517f08c379a0000000000000000000000000000000000000000000000000000000008152600401610cf990612463565b60405180910390fd5b600073ffffffffffffffffffffffffffffffffffffffff168273ffffffffffffffffffffffffffffffffffffffff161415610d72576040517f08c379a0000000000000000000000000000000000000000000000000000000008152600401610d69906124f5565b60405180910390fd5b610d7f8383836001611528565b8273ffffffffffffffffffffffffffffffffffffffff16610d9f82610659565b73ffffffffffffffffffffffffffffffffffffffff1614610df5576040517f08c379a0000000000000000000000000000000000000000000000000000000008152600401610dec90612463565b60405180910390fd5b6004600082815260200190815260200160002060006101000a81549073ffffffffffffffffffffffffffffffffffffffff02191690556001600360008573ffffffffffffffffffffffffffffffffffffffff1673ffffffffffffffffffffffffffffffffffffffff168152602001908152602001600020600082825403925050819055506001600360008473ffffffffffffffffffffffffffffffffffffffff1673ffffffffffffffffffffffffffffffffffffffff16815260200190815260200160002060008282540192505081905550816002600083815260200190815260200160002060006101000a81548173ffffffffffffffffffffffffffffffffffffffff021916908373ffffffffffffffffffffffffffffffffffffffff160217905550808273ffffffffffffffffffffffffffffffffffffffff168473ffffffffffffffffffffffffffffffffffffffff167fddf252ad1be2c89b69c2b068fc378daa952ba7f163c4a11628f55a4df523b3ef60405160405180910390a4610f81838383600161152e565b505050565b60006002600083815260200190815260200160002060009054906101000a900473ffffffffffffffffffffffffffffffffffffffff169050919050565b8173ffffffffffffffffffffffffffffffffffffffff168373ffffffffffffffffffffffffffffffffffffffff161415611032576040517f08c379a000000000000000000000000000000000000000000000000000000000815260040161102990612561565b60405180910390fd5b80600560008573ffffffffffffffffffffffffffffffffffffffff1673ffffffffffffffffffffffffffffffffffffffff16815260200190815260200160002060008473ffffffffffffffffffffffffffffffffffffffff1673ffffffffffffffffffffffffffffffffffffffff16815260200190815260200160002060006101000a81548160ff0219169083151502179055508173ffffffffffffffffffffffffffffffffffffffff168373ffffffffffffffffffffffffffffffffffffffff167f17307eab39ab6107e8899845ad3d59bd9653f200f220920489ca2b5937696c31836040516111239190611a70565b60405180910390a3505050565b61113b848484610c8c565b61114784848484611534565b611186576040517f08c379a000000000000000000000000000000000000000000000000000000000815260040161117d906125f3565b60405180910390fd5b50505050565b60606040518060400160405280601881526020017f6163616c612d65766d2b2d7475746f7269616c2d6e66742f0000000000000000815250905090565b60606111d482610aeb565b60006111de61118c565b905060008151116111fe5760405180602001604052806000815250611229565b80611208846116cb565b6040516020016112199291906123cd565b6040516020818303038152906040525b915050919050565b6001816000016000828254019250508190555050565b600081600001549050919050565b600073ffffffffffffffffffffffffffffffffffffffff168273ffffffffffffffffffffffffffffffffffffffff1614156112c5576040517f08c379a00000000000000000000000000000000000000000000000000000000081526004016112bc9061265f565b60405180910390fd5b6112ce816114e7565b1561130e576040517f08c379a0000000000000000000000000000000000000000000000000000000008152600401611305906126cb565b60405180910390fd5b61131c600083836001611528565b611325816114e7565b15611365576040517f08c379a000000000000000000000000000000000000000000000000000000000815260040161135c906126cb565b60405180910390fd5b6001600360008473ffffffffffffffffffffffffffffffffffffffff1673ffffffffffffffffffffffffffffffffffffffff16815260200190815260200160002060008282540192505081905550816002600083815260200190815260200160002060006101000a81548173ffffffffffffffffffffffffffffffffffffffff021916908373ffffffffffffffffffffffffffffffffffffffff160217905550808273ffffffffffffffffffffffffffffffffffffffff16600073ffffffffffffffffffffffffffffffffffffffff167fddf252ad1be2c89b69c2b068fc378daa952ba7f163c4a11628f55a4df523b3ef60405160405180910390a461146f60008383600161152e565b5050565b61147c826114e7565b6114bb576040517f08c379a00000000000000000000000000000000000000000000000000000000081526004016114b29061275d565b60405180910390fd5b806006600084815260200190815260200160002090805190602001906114e2929190611919565b505050565b60008073ffffffffffffffffffffffffffffffffffffffff1661150983610f86565b73ffffffffffffffffffffffffffffffffffffffff1614159050919050565b50505050565b50505050565b60006115558473ffffffffffffffffffffffffffffffffffffffff166117a3565b156116be578373ffffffffffffffffffffffffffffffffffffffff1663150b7a0261157e610b36565b8786866040518563ffffffff1660e01b81526004016115a094939291906127d2565b602060405180830381600087803b1580156115ba57600080fd5b505af19250505080156115eb57506040513d601f19601f820116820180604052508101906115e89190612833565b60015b61166e573d806000811461161b576040519150601f19603f3d011682016040523d82523d6000602084013e611620565b606091505b50600081511415611666576040517f08c379a000000000000000000000000000000000000000000000000000000000815260040161165d906125f3565b60405180910390fd5b805181602001fd5b63150b7a0260e01b7bffffffffffffffffffffffffffffffffffffffffffffffffffffffff1916817bffffffffffffffffffffffffffffffffffffffffffffffffffffffff1916149150506116c3565b600190505b949350505050565b6060600060016116da846117c6565b01905060008167ffffffffffffffff8111156116f9576116f8611d91565b5b6040519080825280601f01601f19166020018201604052801561172b5781602001600182028036833780820191505090505b509050600082602001820190505b600115611798578080600190039150507f3031323334353637383961626364656600000000000000000000000000000000600a86061a8153600a858161178257611781612860565b5b049450600085141561179357611798565b611739565b819350505050919050565b6000808273ffffffffffffffffffffffffffffffffffffffff163b119050919050565b600080600090507a184f03e93ff9f4daa797ed6e38ed64bf6a1f0100000000000000008310611824577a184f03e93ff9f4daa797ed6e38ed64bf6a1f010000000000000000838161181a57611819612860565b5b0492506040810190505b6d04ee2d6d415b85acef81000000008310611861576d04ee2d6d415b85acef8100000000838161185757611856612860565b5b0492506020810190505b662386f26fc10000831061189057662386f26fc10000838161188657611885612860565b5b0492506010810190505b6305f5e10083106118b9576305f5e10083816118af576118ae612860565b5b0492506008810190505b61271083106118de5761271083816118d4576118d3612860565b5b0492506004810190505b6064831061190157606483816118f7576118f6612860565b5b0492506002810190505b600a8310611910576001810190505b80915050919050565b828054611925906120ab565b90600052602060002090601f016020900481019282611947576000855561198e565b82601f1061196057805160ff191683800117855561198e565b8280016001018555821561198e579182015b8281111561198d578251825591602001919060010190611972565b5b50905061199b919061199f565b5090565b5b808211156119b85760008160009055506001016119a0565b5090565b6000604051905090565b600080fd5b600080fd5b60007fffffffff0000000000000000000000000000000000000000000000000000000082169050919050565b611a05816119d0565b8114611a1057600080fd5b50565b600081359050611a22816119fc565b92915050565b600060208284031215611a3e57611a3d6119c6565b5b6000611a4c84828501611a13565b91505092915050565b60008115159050919050565b611a6a81611a55565b82525050565b6000602082019050611a856000830184611a61565b92915050565b600081519050919050565b600082825260208201905092915050565b60005b83811015611ac5578082015181840152602081019050611aaa565b83811115611ad4576000848401525b50505050565b6000601f19601f8301169050919050565b6000611af682611a8b565b611b008185611a96565b9350611b10818560208601611aa7565b611b1981611ada565b840191505092915050565b60006020820190508181036000830152611b3e8184611aeb565b905092915050565b6000819050919050565b611b5981611b46565b8114611b6457600080fd5b50565b600081359050611b7681611b50565b92915050565b600060208284031215611b9257611b916119c6565b5b6000611ba084828501611b67565b91505092915050565b600073ffffffffffffffffffffffffffffffffffffffff82169050919050565b6000611bd482611ba9565b9050919050565b611be481611bc9565b82525050565b6000602082019050611bff6000830184611bdb565b92915050565b611c0e81611bc9565b8114611c1957600080fd5b50565b600081359050611c2b81611c05565b92915050565b60008060408385031215611c4857611c476119c6565b5b6000611c5685828601611c1c565b9250506020611c6785828601611b67565b9150509250929050565b600080600060608486031215611c8a57611c896119c6565b5b6000611c9886828701611c1c565b9350506020611ca986828701611c1c565b9250506040611cba86828701611b67565b9150509250925092565b600060208284031215611cda57611cd96119c6565b5b6000611ce884828501611c1c565b91505092915050565b611cfa81611b46565b82525050565b6000602082019050611d156000830184611cf1565b92915050565b611d2481611a55565b8114611d2f57600080fd5b50565b600081359050611d4181611d1b565b92915050565b60008060408385031215611d5e57611d5d6119c6565b5b6000611d6c85828601611c1c565b9250506020611d7d85828601611d32565b9150509250929050565b600080fd5b600080fd5b7f4e487b7100000000000000000000000000000000000000000000000000000000600052604160045260246000fd5b611dc982611ada565b810181811067ffffffffffffffff82111715611de857611de7611d91565b5b80604052505050565b6000611dfb6119bc565b9050611e078282611dc0565b919050565b600067ffffffffffffffff821115611e2757611e26611d91565b5b611e3082611ada565b9050602081019050919050565b82818337600083830152505050565b6000611e5f611e5a84611e0c565b611df1565b905082815260208101848484011115611e7b57611e7a611d8c565b5b611e86848285611e3d565b509392505050565b600082601f830112611ea357611ea2611d87565b5b8135611eb3848260208601611e4c565b91505092915050565b60008060008060808587031215611ed657611ed56119c6565b5b6000611ee487828801611c1c565b9450506020611ef587828801611c1c565b9350506040611f0687828801611b67565b925050606085013567ffffffffffffffff811115611f2757611f266119cb565b5b611f3387828801611e8e565b91505092959194509250565b60008060408385031215611f5657611f556119c6565b5b6000611f6485828601611c1c565b9250506020611f7585828601611c1c565b9150509250929050565b600067ffffffffffffffff821115611f9a57611f99611d91565b5b611fa382611ada565b9050602081019050919050565b6000611fc3611fbe84611f7f565b611df1565b905082815260208101848484011115611fdf57611fde611d8c565b5b611fea848285611e3d565b509392505050565b600082601f83011261200757612006611d87565b5b8135612017848260208601611fb0565b91505092915050565b60008060408385031215612037576120366119c6565b5b600061204585828601611c1c565b925050602083013567ffffffffffffffff811115612066576120656119cb565b5b61207285828601611ff2565b9150509250929050565b7f4e487b7100000000000000000000000000000000000000000000000000000000600052602260045260246000fd5b600060028204905060018216806120c357607f821691505b602082108114156120d7576120d661207c565b5b50919050565b7f4552433732313a20617070726f76616c20746f2063757272656e74206f776e6560008201527f7200000000000000000000000000000000000000000000000000000000000000602082015250565b6000612139602183611a96565b9150612144826120dd565b604082019050919050565b600060208201905081810360008301526121688161212c565b9050919050565b7f4552433732313a20617070726f76652063616c6c6572206973206e6f7420746f60008201527f6b656e206f776e6572206f7220617070726f76656420666f7220616c6c000000602082015250565b60006121cb603d83611a96565b91506121d68261216f565b604082019050919050565b600060208201905081810360008301526121fa816121be565b9050919050565b7f4552433732313a2063616c6c6572206973206e6f7420746f6b656e206f776e6560008201527f72206f7220617070726f76656400000000000000000000000000000000000000602082015250565b600061225d602d83611a96565b915061226882612201565b604082019050919050565b6000602082019050818103600083015261228c81612250565b9050919050565b7f4552433732313a20696e76616c696420746f6b656e2049440000000000000000600082015250565b60006122c9601883611a96565b91506122d482612293565b602082019050919050565b600060208201905081810360008301526122f8816122bc565b9050919050565b7f4552433732313a2061646472657373207a65726f206973206e6f74206120766160008201527f6c6964206f776e65720000000000000000000000000000000000000000000000602082015250565b600061235b602983611a96565b9150612366826122ff565b604082019050919050565b6000602082019050818103600083015261238a8161234e565b9050919050565b600081905092915050565b60006123a782611a8b565b6123b18185612391565b93506123c1818560208601611aa7565b80840191505092915050565b60006123d9828561239c565b91506123e5828461239c565b91508190509392505050565b7f4552433732313a207472616e736665722066726f6d20696e636f72726563742060008201527f6f776e6572000000000000000000000000000000000000000000000000000000602082015250565b600061244d602583611a96565b9150612458826123f1565b604082019050919050565b6000602082019050818103600083015261247c81612440565b9050919050565b7f4552433732313a207472616e7366657220746f20746865207a65726f2061646460008201527f7265737300000000000000000000000000000000000000000000000000000000602082015250565b60006124df602483611a96565b91506124ea82612483565b604082019050919050565b6000602082019050818103600083015261250e816124d2565b9050919050565b7f4552433732313a20617070726f766520746f2063616c6c657200000000000000600082015250565b600061254b601983611a96565b915061255682612515565b602082019050919050565b6000602082019050818103600083015261257a8161253e565b9050919050565b7f4552433732313a207472616e7366657220746f206e6f6e20455243373231526560008201527f63656976657220696d706c656d656e7465720000000000000000000000000000602082015250565b60006125dd603283611a96565b91506125e882612581565b604082019050919050565b6000602082019050818103600083015261260c816125d0565b9050919050565b7f4552433732313a206d696e7420746f20746865207a65726f2061646472657373600082015250565b6000612649602083611a96565b915061265482612613565b602082019050919050565b600060208201905081810360008301526126788161263c565b9050919050565b7f4552433732313a20746f6b656e20616c7265616479206d696e74656400000000600082015250565b60006126b5601c83611a96565b91506126c08261267f565b602082019050919050565b600060208201905081810360008301526126e4816126a8565b9050919050565b7f45524337323155524953746f726167653a2055524920736574206f66206e6f6e60008201527f6578697374656e7420746f6b656e000000000000000000000000000000000000602082015250565b6000612747602e83611a96565b9150612752826126eb565b604082019050919050565b600060208201905081810360008301526127768161273a565b9050919050565b600081519050919050565b600082825260208201905092915050565b60006127a48261277d565b6127ae8185612788565b93506127be818560208601611aa7565b6127c781611ada565b840191505092915050565b60006080820190506127e76000830187611bdb565b6127f46020830186611bdb565b6128016040830185611cf1565b81810360608301526128138184612799565b905095945050505050565b60008151905061282d816119fc565b92915050565b600060208284031215612849576128486119c6565b5b60006128578482850161281e565b91505092915050565b7f4e487b7100000000000000000000000000000000000000000000000000000000600052601260045260246000fdfea2646970667358221220f419ff198bc1ecc87baf621b5899bad711816557a0e4a73a6f1648b70a1820f064736f6c63430008090033",
  "linkReferences": {},
  "deployedLinkReferences": {}
}